{
  "contractName": "Energy",
  "abi": [
    {
      "inputs": [],
      "stateMutability": "nonpayable",
      "type": "constructor"
    },
    {
      "anonymous": false,
      "inputs": [
        {
          "indexed": true,
          "internalType": "address",
          "name": "producer",
          "type": "address"
        },
        {
          "indexed": false,
          "internalType": "uint64",
          "name": "maxEnergy",
          "type": "uint64"
        },
        {
          "indexed": false,
          "internalType": "uint64",
          "name": "minEnergy",
          "type": "uint64"
        },
        {
          "indexed": true,
          "internalType": "uint32",
          "name": "pricePerUnit",
          "type": "uint32"
        }
      ],
      "name": "BidMade",
      "type": "event"
    },
    {
      "anonymous": false,
      "inputs": [
        {
          "indexed": true,
          "internalType": "address",
          "name": "consumer",
          "type": "address"
        },
        {
          "indexed": true,
          "internalType": "uint64",
          "name": "Energy",
          "type": "uint64"
        },
        {
          "indexed": true,
          "internalType": "uint64",
          "name": "totalPrice",
          "type": "uint64"
        }
      ],
      "name": "DealMade",
      "type": "event"
    },
    {
      "anonymous": false,
      "inputs": [
        {
          "indexed": true,
          "internalType": "address",
          "name": "owner",
          "type": "address"
        }
      ],
      "name": "agentDeregistered",
      "type": "event"
    },
    {
      "anonymous": false,
      "inputs": [
        {
          "indexed": true,
          "internalType": "address",
          "name": "owner",
          "type": "address"
        }
      ],
      "name": "agentRegistered",
      "type": "event"
    },
    {
      "anonymous": false,
      "inputs": [
        {
          "indexed": true,
          "internalType": "address",
          "name": "consumer",
          "type": "address"
        }
      ],
      "name": "consumerDeregistered",
      "type": "event"
    },
    {
      "anonymous": false,
      "inputs": [
        {
          "indexed": true,
          "internalType": "address",
          "name": "consumer",
          "type": "address"
        }
      ],
      "name": "consumerRegistered",
      "type": "event"
    },
    {
      "anonymous": false,
      "inputs": [
        {
          "indexed": true,
          "internalType": "address",
          "name": "producer",
          "type": "address"
        }
      ],
      "name": "producerDeregistered",
      "type": "event"
    },
    {
      "anonymous": false,
      "inputs": [
        {
          "indexed": true,
          "internalType": "address",
          "name": "producer",
          "type": "address"
        }
      ],
      "name": "producerRegistered",
      "type": "event"
    },
    {
      "inputs": [
        {
          "internalType": "address",
          "name": "",
          "type": "address"
        }
      ],
      "name": "agents",
      "outputs": [
        {
          "internalType": "uint32",
          "name": "",
          "type": "uint32"
        }
      ],
      "stateMutability": "view",
      "type": "function",
      "constant": true
    },
    {
      "inputs": [
        {
          "internalType": "uint256",
          "name": "",
          "type": "uint256"
        }
      ],
      "name": "bids",
      "outputs": [
        {
          "internalType": "address",
          "name": "producer",
          "type": "address"
        },
        {
          "internalType": "uint32",
          "name": "serial",
          "type": "uint32"
        },
        {
          "internalType": "uint32",
          "name": "pricePerUnit",
          "type": "uint32"
        },
        {
          "internalType": "uint64",
          "name": "maxEnergy",
          "type": "uint64"
        },
        {
          "internalType": "uint64",
          "name": "minEnergy",
          "type": "uint64"
        },
        {
          "internalType": "uint256",
          "name": "timestamp",
          "type": "uint256"
        },
        {
          "internalType": "bool",
          "name": "isSold",
          "type": "bool"
        }
      ],
      "stateMutability": "view",
      "type": "function",
      "constant": true
    },
    {
      "inputs": [
        {
          "internalType": "address",
          "name": "",
          "type": "address"
        }
      ],
      "name": "consumers",
      "outputs": [
        {
          "internalType": "uint32",
          "name": "",
          "type": "uint32"
        }
      ],
      "stateMutability": "view",
      "type": "function",
      "constant": true
    },
    {
      "inputs": [],
      "name": "owner",
      "outputs": [
        {
          "internalType": "address",
          "name": "",
          "type": "address"
        }
      ],
      "stateMutability": "view",
      "type": "function",
      "constant": true
    },
    {
      "inputs": [
        {
          "internalType": "address",
          "name": "",
          "type": "address"
        }
      ],
      "name": "producers",
      "outputs": [
        {
          "internalType": "uint32",
          "name": "",
          "type": "uint32"
        }
      ],
      "stateMutability": "view",
      "type": "function",
      "constant": true
    },
    {
      "inputs": [
        {
          "internalType": "address",
          "name": "",
          "type": "address"
        }
      ],
      "name": "userEnergyBalance",
      "outputs": [
        {
          "internalType": "uint256",
          "name": "",
          "type": "uint256"
        }
      ],
      "stateMutability": "view",
      "type": "function",
      "constant": true
    },
    {
      "inputs": [
        {
          "internalType": "address",
          "name": "_agent",
          "type": "address"
        },
        {
          "internalType": "uint32",
          "name": "_id",
          "type": "uint32"
        }
      ],
      "name": "registerAgents",
      "outputs": [],
      "stateMutability": "nonpayable",
      "type": "function"
    },
    {
      "inputs": [
        {
          "internalType": "address",
          "name": "_agent",
          "type": "address"
        },
        {
          "internalType": "uint32",
          "name": "_id",
          "type": "uint32"
        }
      ],
      "name": "deRegisterAgents",
      "outputs": [],
      "stateMutability": "nonpayable",
      "type": "function"
    },
    {
      "inputs": [
        {
          "internalType": "address",
          "name": "_consumer",
          "type": "address"
        },
        {
          "internalType": "uint32",
          "name": "_id",
          "type": "uint32"
        },
        {
          "internalType": "uint256",
          "name": "_energyBalance",
          "type": "uint256"
        }
      ],
      "name": "registerConsumer",
      "outputs": [],
      "stateMutability": "nonpayable",
      "type": "function"
    },
    {
      "inputs": [
        {
          "internalType": "address",
          "name": "_consumer",
          "type": "address"
        },
        {
          "internalType": "uint32",
          "name": "_id",
          "type": "uint32"
        }
      ],
      "name": "deRegisterConsumer",
      "outputs": [],
      "stateMutability": "nonpayable",
      "type": "function"
    },
    {
      "inputs": [
        {
          "internalType": "address",
          "name": "_producer",
          "type": "address"
        },
        {
          "internalType": "uint32",
          "name": "_id",
          "type": "uint32"
        },
        {
          "internalType": "uint256",
          "name": "_energyBalance",
          "type": "uint256"
        }
      ],
      "name": "registerProducer",
      "outputs": [],
      "stateMutability": "nonpayable",
      "type": "function"
    },
    {
      "inputs": [
        {
          "internalType": "address",
          "name": "_producer",
          "type": "address"
        },
        {
          "internalType": "uint32",
          "name": "_id",
          "type": "uint32"
        }
      ],
      "name": "deRegisterProducer",
      "outputs": [],
      "stateMutability": "nonpayable",
      "type": "function"
    },
    {
      "inputs": [
        {
          "internalType": "uint32",
          "name": "_price",
          "type": "uint32"
        },
        {
          "internalType": "uint64",
          "name": "_maxEnergy",
          "type": "uint64"
        },
        {
          "internalType": "uint64",
          "name": "_minEnergy",
          "type": "uint64"
        }
      ],
      "name": "OfferEnergy",
      "outputs": [],
      "stateMutability": "nonpayable",
      "type": "function"
    },
    {
      "inputs": [
        {
          "internalType": "uint256",
          "name": "index",
          "type": "uint256"
        }
      ],
      "name": "ShowBidByIndex",
      "outputs": [
        {
          "components": [
            {
              "internalType": "address",
              "name": "producer",
              "type": "address"
            },
            {
              "internalType": "uint32",
              "name": "serial",
              "type": "uint32"
            },
            {
              "internalType": "uint32",
              "name": "pricePerUnit",
              "type": "uint32"
            },
            {
              "internalType": "uint64",
              "name": "maxEnergy",
              "type": "uint64"
            },
            {
              "internalType": "uint64",
              "name": "minEnergy",
              "type": "uint64"
            },
            {
              "internalType": "uint256",
              "name": "timestamp",
              "type": "uint256"
            },
            {
              "internalType": "bool",
              "name": "isSold",
              "type": "bool"
            }
          ],
          "internalType": "struct Energy.Bid",
          "name": "",
          "type": "tuple"
        }
      ],
      "stateMutability": "view",
      "type": "function",
      "constant": true
    },
    {
      "inputs": [
        {
          "internalType": "address",
          "name": "_producer",
          "type": "address"
        },
        {
          "internalType": "uint64",
          "name": "_energy",
          "type": "uint64"
        },
        {
          "internalType": "uint32",
          "name": "_bidSerial",
          "type": "uint32"
        }
      ],
      "name": "BuyEnergy",
      "outputs": [],
      "stateMutability": "payable",
      "type": "function",
      "payable": true
    },
    {
      "inputs": [
        {
          "internalType": "address",
          "name": "_account",
          "type": "address"
        }
      ],
      "name": "getBalance",
      "outputs": [
        {
          "internalType": "uint256",
          "name": "",
          "type": "uint256"
        }
      ],
      "stateMutability": "view",
      "type": "function",
      "constant": true
    }
  ],
  "bytecode": "0x608060405260008060146101000a81548163ffffffff021916908363ffffffff16021790555060008060186101000a81548163ffffffff021916908363ffffffff16021790555034801561005257600080fd5b50336000806101000a81548173ffffffffffffffffffffffffffffffffffffffff021916908373ffffffffffffffffffffffffffffffffffffffff1602179055506001600560008060009054906101000a900473ffffffffffffffffffffffffffffffffffffffff1673ffffffffffffffffffffffffffffffffffffffff1673ffffffffffffffffffffffffffffffffffffffff16815260200190815260200160002060006101000a81548163ffffffff021916908363ffffffff1602179055506129df806101226000396000f3fe6080604052600436106100f35760003560e01c80638da5cb5b1161008a578063e72cffc911610059578063e72cffc91461031b578063f8b2cb4f14610358578063fd66091e14610395578063ffea2b3b146103d2576100f3565b80638da5cb5b14610275578063ba1f6404146102a0578063bc7cf830146102c9578063e1849d8c146102f2576100f3565b806357f1da68116100c657806357f1da68146101de57806361143446146102075780637de040e01461022357806386e736ee1461024c576100f3565b80630bf53668146100f857806326324eff146101355780633ed18bd6146101725780634423c5f11461019b575b600080fd5b34801561010457600080fd5b5061011f600480360381019061011a9190611de7565b61040f565b60405161012c9190611e33565b60405180910390f35b34801561014157600080fd5b5061015c60048036038101906101579190611de7565b610432565b6040516101699190611e33565b60405180910390f35b34801561017e57600080fd5b5061019960048036038101906101949190611e7a565b610455565b005b3480156101a757600080fd5b506101c260048036038101906101bd9190611ef0565b61059b565b6040516101d59796959493929190611f79565b60405180910390f35b3480156101ea57600080fd5b5061020560048036038101906102009190611fe8565b610662565b005b610221600480360381019061021c9190612067565b6107f7565b005b34801561022f57600080fd5b5061024a600480360381019061024591906120ba565b610f1b565b005b34801561025857600080fd5b50610273600480360381019061026e9190611e7a565b611466565b005b34801561028157600080fd5b5061028a6115ed565b604051610297919061210d565b60405180910390f35b3480156102ac57600080fd5b506102c760048036038101906102c29190611e7a565b611611565b005b3480156102d557600080fd5b506102f060048036038101906102eb9190611fe8565b61174b565b005b3480156102fe57600080fd5b5061031960048036038101906103149190611e7a565b6118e0565b005b34801561032757600080fd5b50610342600480360381019061033d9190611de7565b611a67565b60405161034f9190612128565b60405180910390f35b34801561036457600080fd5b5061037f600480360381019061037a9190611de7565b611a7f565b60405161038c9190612128565b60405180910390f35b3480156103a157600080fd5b506103bc60048036038101906103b79190611de7565b611aa0565b6040516103c99190611e33565b60405180910390f35b3480156103de57600080fd5b506103f960048036038101906103f49190611ef0565b611ac3565b604051610406919061221c565b60405180910390f35b60046020528060005260406000206000915054906101000a900463ffffffff1681565b60036020528060005260406000206000915054906101000a900463ffffffff1681565b60008054906101000a900473ffffffffffffffffffffffffffffffffffffffff1673ffffffffffffffffffffffffffffffffffffffff163373ffffffffffffffffffffffffffffffffffffffff16146104ad57600080fd5b60018163ffffffff16116104f6576040517f08c379a00000000000000000000000000000000000000000000000000000000081526004016104ed90612294565b60405180910390fd5b80600560008473ffffffffffffffffffffffffffffffffffffffff1673ffffffffffffffffffffffffffffffffffffffff16815260200190815260200160002060006101000a81548163ffffffff021916908363ffffffff1602179055508173ffffffffffffffffffffffffffffffffffffffff167ff13217e8627f8bcd7ed03be82005f679ca6204ad607b28cc53a06458f2acefb160405160405180910390a25050565b600181815481106105ab57600080fd5b90600052602060002090600402016000915090508060000160009054906101000a900473ffffffffffffffffffffffffffffffffffffffff16908060000160149054906101000a900463ffffffff16908060000160189054906101000a900463ffffffff16908060010160009054906101000a900467ffffffffffffffff16908060010160089054906101000a900467ffffffffffffffff16908060020154908060030160009054906101000a900460ff16905087565b6000600560003373ffffffffffffffffffffffffffffffffffffffff1673ffffffffffffffffffffffffffffffffffffffff16815260200190815260200160002060009054906101000a900463ffffffff1663ffffffff16116106c457600080fd5b60008263ffffffff161161070d576040517f08c379a000000000000000000000000000000000000000000000000000000000815260040161070490612294565b60405180910390fd5b81600360008573ffffffffffffffffffffffffffffffffffffffff1673ffffffffffffffffffffffffffffffffffffffff16815260200190815260200160002060006101000a81548163ffffffff021916908363ffffffff16021790555080600660008573ffffffffffffffffffffffffffffffffffffffff1673ffffffffffffffffffffffffffffffffffffffff168152602001908152602001600020819055508273ffffffffffffffffffffffffffffffffffffffff167f769268709e630d5b24d4c651adeae2d7a75c3dd7c3876275233e21570be22fd460405160405180910390a2505050565b6000600460003373ffffffffffffffffffffffffffffffffffffffff1673ffffffffffffffffffffffffffffffffffffffff16815260200190815260200160002060009054906101000a900463ffffffff1663ffffffff161161085957600080fd5b6001805490508163ffffffff16106108a6576040517f08c379a000000000000000000000000000000000000000000000000000000000815260040161089d90612326565b60405180910390fd5b8273ffffffffffffffffffffffffffffffffffffffff1660018263ffffffff16815481106108d7576108d6612346565b5b906000526020600020906004020160000160009054906101000a900473ffffffffffffffffffffffffffffffffffffffff1673ffffffffffffffffffffffffffffffffffffffff161461095f576040517f08c379a0000000000000000000000000000000000000000000000000000000008152600401610956906123e7565b60405180910390fd5b4260018263ffffffff168154811061097a57610979612346565b5b90600052602060002090600402016002015411156109cd576040517f08c379a00000000000000000000000000000000000000000000000000000000081526004016109c490612479565b60405180910390fd5b8167ffffffffffffffff1660018263ffffffff16815481106109f2576109f1612346565b5b906000526020600020906004020160010160009054906101000a900467ffffffffffffffff1667ffffffffffffffff161015610a63576040517f08c379a0000000000000000000000000000000000000000000000000000000008152600401610a5a9061250b565b60405180910390fd5b60018163ffffffff1681548110610a7d57610a7c612346565b5b906000526020600020906004020160010160089054906101000a900467ffffffffffffffff1667ffffffffffffffff168267ffffffffffffffff161015610af9576040517f08c379a0000000000000000000000000000000000000000000000000000000008152600401610af09061259d565b60405180910390fd5b6000151560018263ffffffff1681548110610b1757610b16612346565b5b906000526020600020906004020160030160009054906101000a900460ff16151514610b78576040517f08c379a0000000000000000000000000000000000000000000000000000000008152600401610b6f9061250b565b60405180910390fd5b60008260018363ffffffff1681548110610b9557610b94612346565b5b906000526020600020906004020160000160189054906101000a900463ffffffff1663ffffffff16610bc791906125ec565b90508067ffffffffffffffff163373ffffffffffffffffffffffffffffffffffffffff163111610c2c576040517f08c379a0000000000000000000000000000000000000000000000000000000008152600401610c23906126a0565b60405180910390fd5b60018263ffffffff1681548110610c4657610c45612346565b5b906000526020600020906004020160010160009054906101000a900467ffffffffffffffff1667ffffffffffffffff16600660008673ffffffffffffffffffffffffffffffffffffffff1673ffffffffffffffffffffffffffffffffffffffff1681526020019081526020016000206000828254610cc491906126c0565b925050819055508267ffffffffffffffff16600660003373ffffffffffffffffffffffffffffffffffffffff1673ffffffffffffffffffffffffffffffffffffffff1681526020019081526020016000206000828254610d2491906126c0565b925050819055508267ffffffffffffffff16600660008673ffffffffffffffffffffffffffffffffffffffff1673ffffffffffffffffffffffffffffffffffffffff1681526020019081526020016000206000828254610d849190612716565b92505081905550610d958482611c77565b600260405180608001604052808673ffffffffffffffffffffffffffffffffffffffff1681526020018567ffffffffffffffff1681526020018367ffffffffffffffff16815260200142815250908060018154018082558091505060019003906000526020600020906003020160009091909190915060008201518160000160006101000a81548173ffffffffffffffffffffffffffffffffffffffff021916908373ffffffffffffffffffffffffffffffffffffffff16021790555060208201518160000160146101000a81548167ffffffffffffffff021916908367ffffffffffffffff16021790555060408201518160010160006101000a81548167ffffffffffffffff021916908367ffffffffffffffff1602179055506060820151816002015550508067ffffffffffffffff168367ffffffffffffffff163373ffffffffffffffffffffffffffffffffffffffff167fb729de0a79814cd6b6485ba8620ce4f8a42e7390d752969ac7f4942d5c15d76960405160405180910390a450505050565b6000600360003373ffffffffffffffffffffffffffffffffffffffff1673ffffffffffffffffffffffffffffffffffffffff16815260200190815260200160002060009054906101000a900463ffffffff1663ffffffff1611610f7d57600080fd5b600660003373ffffffffffffffffffffffffffffffffffffffff1673ffffffffffffffffffffffffffffffffffffffff168152602001908152602001600020548267ffffffffffffffff161115611009576040517f08c379a0000000000000000000000000000000000000000000000000000000008152600401611000906127bc565b60405180910390fd5b60008167ffffffffffffffff1611611056576040517f08c379a000000000000000000000000000000000000000000000000000000000815260040161104d9061284e565b60405180910390fd5b8167ffffffffffffffff16600660003373ffffffffffffffffffffffffffffffffffffffff1673ffffffffffffffffffffffffffffffffffffffff16815260200190815260200160002060008282546110af9190612716565b9250508190555060016040518060e001604052803373ffffffffffffffffffffffffffffffffffffffff168152602001600060149054906101000a900463ffffffff1663ffffffff1681526020018563ffffffff1681526020018467ffffffffffffffff1681526020018367ffffffffffffffff16815260200142815260200160001515815250908060018154018082558091505060019003906000526020600020906004020160009091909190915060008201518160000160006101000a81548173ffffffffffffffffffffffffffffffffffffffff021916908373ffffffffffffffffffffffffffffffffffffffff16021790555060208201518160000160146101000a81548163ffffffff021916908363ffffffff16021790555060408201518160000160186101000a81548163ffffffff021916908363ffffffff16021790555060608201518160010160006101000a81548167ffffffffffffffff021916908367ffffffffffffffff16021790555060808201518160010160086101000a81548167ffffffffffffffff021916908367ffffffffffffffff16021790555060a0820151816002015560c08201518160030160006101000a81548160ff02191690831515021790555050506001600060149054906101000a900463ffffffff1663ffffffff16815481106112aa576112a9612346565b5b906000526020600020906004020160000160189054906101000a900463ffffffff1663ffffffff166001600060149054906101000a900463ffffffff1663ffffffff16815481106112fe576112fd612346565b5b906000526020600020906004020160000160009054906101000a900473ffffffffffffffffffffffffffffffffffffffff1673ffffffffffffffffffffffffffffffffffffffff167f593c6ad93467b71d9826ef43e35f6eecd9aaafdc333e5d2a7c5372b6782cba226001600060149054906101000a900463ffffffff1663ffffffff168154811061139357611392612346565b5b906000526020600020906004020160010160009054906101000a900467ffffffffffffffff166001600060149054906101000a900463ffffffff1663ffffffff16815481106113e5576113e4612346565b5b906000526020600020906004020160010160089054906101000a900467ffffffffffffffff1660405161141992919061286e565b60405180910390a36001600060148282829054906101000a900463ffffffff166114439190612897565b92506101000a81548163ffffffff021916908363ffffffff160217905550505050565b6000600560003373ffffffffffffffffffffffffffffffffffffffff1673ffffffffffffffffffffffffffffffffffffffff16815260200190815260200160002060009054906101000a900463ffffffff1663ffffffff16116114c857600080fd5b60008163ffffffff1611611511576040517f08c379a000000000000000000000000000000000000000000000000000000000815260040161150890612294565b60405180910390fd5b600460008373ffffffffffffffffffffffffffffffffffffffff1673ffffffffffffffffffffffffffffffffffffffff16815260200190815260200160002060006101000a81549063ffffffff0219169055600660008373ffffffffffffffffffffffffffffffffffffffff1673ffffffffffffffffffffffffffffffffffffffff168152602001908152602001600020600090558173ffffffffffffffffffffffffffffffffffffffff167faba09d491d88bf0ee0f8fc8f0168c0178e7210f18b5f524e052a72f550c4474a60405160405180910390a25050565b60008054906101000a900473ffffffffffffffffffffffffffffffffffffffff1681565b60008054906101000a900473ffffffffffffffffffffffffffffffffffffffff1673ffffffffffffffffffffffffffffffffffffffff163373ffffffffffffffffffffffffffffffffffffffff161461166957600080fd5b60018163ffffffff16116116b2576040517f08c379a00000000000000000000000000000000000000000000000000000000081526004016116a990612294565b60405180910390fd5b600560008373ffffffffffffffffffffffffffffffffffffffff1673ffffffffffffffffffffffffffffffffffffffff16815260200190815260200160002060006101000a81549063ffffffff02191690558173ffffffffffffffffffffffffffffffffffffffff167ff17f08eb97e45bf52d599d89477caec4a12007700bab8e46b34c5fd987e2643260405160405180910390a25050565b6000600560003373ffffffffffffffffffffffffffffffffffffffff1673ffffffffffffffffffffffffffffffffffffffff16815260200190815260200160002060009054906101000a900463ffffffff1663ffffffff16116117ad57600080fd5b60008263ffffffff16116117f6576040517f08c379a00000000000000000000000000000000000000000000000000000000081526004016117ed90612294565b60405180910390fd5b81600460008573ffffffffffffffffffffffffffffffffffffffff1673ffffffffffffffffffffffffffffffffffffffff16815260200190815260200160002060006101000a81548163ffffffff021916908363ffffffff16021790555080600660008573ffffffffffffffffffffffffffffffffffffffff1673ffffffffffffffffffffffffffffffffffffffff168152602001908152602001600020819055508273ffffffffffffffffffffffffffffffffffffffff167faba09d491d88bf0ee0f8fc8f0168c0178e7210f18b5f524e052a72f550c4474a60405160405180910390a2505050565b6000600560003373ffffffffffffffffffffffffffffffffffffffff1673ffffffffffffffffffffffffffffffffffffffff16815260200190815260200160002060009054906101000a900463ffffffff1663ffffffff161161194257600080fd5b60008163ffffffff161161198b576040517f08c379a000000000000000000000000000000000000000000000000000000000815260040161198290612294565b60405180910390fd5b600360008373ffffffffffffffffffffffffffffffffffffffff1673ffffffffffffffffffffffffffffffffffffffff16815260200190815260200160002060006101000a81549063ffffffff0219169055600660008373ffffffffffffffffffffffffffffffffffffffff1673ffffffffffffffffffffffffffffffffffffffff168152602001908152602001600020600090558173ffffffffffffffffffffffffffffffffffffffff167f769268709e630d5b24d4c651adeae2d7a75c3dd7c3876275233e21570be22fd460405160405180910390a25050565b60066020528060005260406000206000915090505481565b60008173ffffffffffffffffffffffffffffffffffffffff16319050919050565b60056020528060005260406000206000915054906101000a900463ffffffff1681565b611acb611d0f565b6001805490508210611b12576040517f08c379a0000000000000000000000000000000000000000000000000000000008152600401611b099061291d565b60405180910390fd5b600060018381548110611b2857611b27612346565b5b90600052602060002090600402016040518060e00160405290816000820160009054906101000a900473ffffffffffffffffffffffffffffffffffffffff1673ffffffffffffffffffffffffffffffffffffffff1673ffffffffffffffffffffffffffffffffffffffff1681526020016000820160149054906101000a900463ffffffff1663ffffffff1663ffffffff1681526020016000820160189054906101000a900463ffffffff1663ffffffff1663ffffffff1681526020016001820160009054906101000a900467ffffffffffffffff1667ffffffffffffffff1667ffffffffffffffff1681526020016001820160089054906101000a900467ffffffffffffffff1667ffffffffffffffff1667ffffffffffffffff168152602001600282015481526020016003820160009054906101000a900460ff161515151581525050905080915050919050565b8067ffffffffffffffff16341015611cc4576040517f08c379a0000000000000000000000000000000000000000000000000000000008152600401611cbb90612989565b60405180910390fd5b8173ffffffffffffffffffffffffffffffffffffffff166108fc349081150290604051600060405180830381858888f19350505050158015611d0a573d6000803e3d6000fd5b505050565b6040518060e00160405280600073ffffffffffffffffffffffffffffffffffffffff168152602001600063ffffffff168152602001600063ffffffff168152602001600067ffffffffffffffff168152602001600067ffffffffffffffff168152602001600081526020016000151581525090565b600080fd5b600073ffffffffffffffffffffffffffffffffffffffff82169050919050565b6000611db482611d89565b9050919050565b611dc481611da9565b8114611dcf57600080fd5b50565b600081359050611de181611dbb565b92915050565b600060208284031215611dfd57611dfc611d84565b5b6000611e0b84828501611dd2565b91505092915050565b600063ffffffff82169050919050565b611e2d81611e14565b82525050565b6000602082019050611e486000830184611e24565b92915050565b611e5781611e14565b8114611e6257600080fd5b50565b600081359050611e7481611e4e565b92915050565b60008060408385031215611e9157611e90611d84565b5b6000611e9f85828601611dd2565b9250506020611eb085828601611e65565b9150509250929050565b6000819050919050565b611ecd81611eba565b8114611ed857600080fd5b50565b600081359050611eea81611ec4565b92915050565b600060208284031215611f0657611f05611d84565b5b6000611f1484828501611edb565b91505092915050565b611f2681611da9565b82525050565b600067ffffffffffffffff82169050919050565b611f4981611f2c565b82525050565b611f5881611eba565b82525050565b60008115159050919050565b611f7381611f5e565b82525050565b600060e082019050611f8e600083018a611f1d565b611f9b6020830189611e24565b611fa86040830188611e24565b611fb56060830187611f40565b611fc26080830186611f40565b611fcf60a0830185611f4f565b611fdc60c0830184611f6a565b98975050505050505050565b60008060006060848603121561200157612000611d84565b5b600061200f86828701611dd2565b935050602061202086828701611e65565b925050604061203186828701611edb565b9150509250925092565b61204481611f2c565b811461204f57600080fd5b50565b6000813590506120618161203b565b92915050565b6000806000606084860312156120805761207f611d84565b5b600061208e86828701611dd2565b935050602061209f86828701612052565b92505060406120b086828701611e65565b9150509250925092565b6000806000606084860312156120d3576120d2611d84565b5b60006120e186828701611e65565b93505060206120f286828701612052565b925050604061210386828701612052565b9150509250925092565b60006020820190506121226000830184611f1d565b92915050565b600060208201905061213d6000830184611f4f565b92915050565b61214c81611da9565b82525050565b61215b81611e14565b82525050565b61216a81611f2c565b82525050565b61217981611eba565b82525050565b61218881611f5e565b82525050565b60e0820160008201516121a46000850182612143565b5060208201516121b76020850182612152565b5060408201516121ca6040850182612152565b5060608201516121dd6060850182612161565b5060808201516121f06080850182612161565b5060a082015161220360a0850182612170565b5060c082015161221660c085018261217f565b50505050565b600060e082019050612231600083018461218e565b92915050565b600082825260208201905092915050565b7f50726f7669646520612076616c6964204944206e756d62657200000000000000600082015250565b600061227e601983612237565b915061228982612248565b602082019050919050565b600060208201905081810360008301526122ad81612271565b9050919050565b7f54686520626964207769746820746869732073657269616c20646f6573206e6f60008201527f7420657869737400000000000000000000000000000000000000000000000000602082015250565b6000612310602783612237565b915061231b826122b4565b604082019050919050565b6000602082019050818103600083015261233f81612303565b9050919050565b7f4e487b7100000000000000000000000000000000000000000000000000000000600052603260045260246000fd5b7f546869732070726f647563657220646f65736e2774206f776e2074686973206260008201527f6964000000000000000000000000000000000000000000000000000000000000602082015250565b60006123d1602283612237565b91506123dc82612375565b604082019050919050565b60006020820190508181036000830152612400816123c4565b9050919050565b7f43616e206e6f742062757920656e65726779206265666f7265206f666665726960008201527f6e67206974000000000000000000000000000000000000000000000000000000602082015250565b6000612463602583612237565b915061246e82612407565b604082019050919050565b6000602082019050818103600083015261249281612456565b9050919050565b7f5468652062696420646f6573206e6f7420686176652073756666696369656e7460008201527f20656e6572677900000000000000000000000000000000000000000000000000602082015250565b60006124f5602783612237565b915061250082612499565b604082019050919050565b60006020820190508181036000830152612524816124e8565b9050919050565b7f596f7520646964206e6f742061736b20666f72206d696e696d756d20616d6f7560008201527f74206f6620656e65726779000000000000000000000000000000000000000000602082015250565b6000612587602b83612237565b91506125928261252b565b604082019050919050565b600060208201905081810360008301526125b68161257a565b9050919050565b7f4e487b7100000000000000000000000000000000000000000000000000000000600052601160045260246000fd5b60006125f782611f2c565b915061260283611f2c565b92508167ffffffffffffffff0483118215151615612623576126226125bd565b5b828202905092915050565b7f446f206e6f74206861766520656e6f75676820657468657220696e20796f757260008201527f206163636f756e74000000000000000000000000000000000000000000000000602082015250565b600061268a602883612237565b91506126958261262e565b604082019050919050565b600060208201905081810360008301526126b98161267d565b9050919050565b60006126cb82611eba565b91506126d683611eba565b9250827fffffffffffffffffffffffffffffffffffffffffffffffffffffffffffffffff0382111561270b5761270a6125bd565b5b828201905092915050565b600061272182611eba565b915061272c83611eba565b92508282101561273f5761273e6125bd565b5b828203905092915050565b7f446f6e277420686176652074686973206d75636820656e6572677920746f206f60008201527f6666657200000000000000000000000000000000000000000000000000000000602082015250565b60006127a6602483612237565b91506127b18261274a565b604082019050919050565b600060208201905081810360008301526127d581612799565b9050919050565b7f4861766520746f206f66666572206d696e696d756d20656e65726779206f666660008201527f6572000000000000000000000000000000000000000000000000000000000000602082015250565b6000612838602283612237565b9150612843826127dc565b604082019050919050565b600060208201905081810360008301526128678161282b565b9050919050565b60006040820190506128836000830185611f40565b6128906020830184611f40565b9392505050565b60006128a282611e14565b91506128ad83611e14565b92508263ffffffff038211156128c6576128c56125bd565b5b828201905092915050565b7f496e646578206f7574206f6620626f756e647300000000000000000000000000600082015250565b6000612907601383612237565b9150612912826128d1565b602082019050919050565b60006020820190508181036000830152612936816128fa565b9050919050565b7f446964206e6f742073656e6420656e6f75676820657468657200000000000000600082015250565b6000612973601983612237565b915061297e8261293d565b602082019050919050565b600060208201905081810360008301526129a281612966565b905091905056fea2646970667358221220d2d3b4c63bf627da6b42bb20a6918f1612b890150b95c3bb868fcb1857b3965164736f6c634300080d0033",
  "immutableReferences": {},
  "source": "//SPDX-License-Identifier: GPL-3.0\n\npragma solidity >=0.7.0 <0.9.0;\n\ncontract Energy {\n    address public owner;\n\n    constructor() {\n        owner = msg.sender;\n        agents[owner] = 1;\n    }\n\n    uint32 private bidId = 0;\n    uint32 private asksId = 0;\n\n    struct Bid{\n        address producer;\n        uint32 serial;\n        uint32 pricePerUnit;\n        uint64 maxEnergy;\n        uint64 minEnergy;\n        uint256 timestamp;\n        bool isSold;\n    }\n\n    struct Ask{\n        address producer;\n        uint64 energy;\n        uint64 totalPrice;\n        uint256 timestamp;\n    }\n\n    Bid[] public bids;\n    Ask[] private asks;\n\n    //map address to producerID\n    mapping(address => uint32) public producers;\n    mapping(address => uint32) public consumers;\n    mapping(address => uint32) public agents;\n\n    //mapping the producer address and the timestamp to the bidsIndex\n    // mapping(address =>mapping(uint256 => uint32)) public bidsIndex;\n    //mapping the consumer address and timestamp to the asksIndex\n    // mapping(address =>mapping(uint256 => uint32)) public asksIndex;\n\n    mapping(address => uint256) public userEnergyBalance;\n\n    event agentRegistered(address indexed owner);\n    event agentDeregistered(address indexed owner);\n\n    event producerRegistered(address indexed producer);\n    event producerDeregistered(address indexed producer);\n\n    event consumerRegistered(address indexed consumer);\n    event consumerDeregistered(address indexed consumer);\n\n    event BidMade(address indexed producer, uint64 maxEnergy, uint64 minEnergy, uint32 indexed pricePerUnit);\n    event DealMade(address indexed consumer, uint64 indexed Energy, uint64 indexed totalPrice);\n\n    modifier onlyOwner() {\n        require(msg.sender == owner);\n        _;\n    }\n\n    modifier onlyRegisteredAgents() {\n        require(agents[msg.sender]>0);\n        _;\n    }\n\n    modifier onlyRegisteredProducers() {\n        require(producers[msg.sender]>0);\n        _;\n    }\n\n    modifier onlyRegisteredConsumers() {\n        require(consumers[msg.sender]>0);\n        _;\n    }\n\n//agent-registry\n//the agentId=1 is taken by the owner. so, the later agents will get ID starting from 2 \n    function registerAgents(address _agent, uint32 _id) public onlyOwner{\n        require(_id > 1,\"Provide a valid ID number\");\n        agents[_agent]=_id;\n        emit agentRegistered(_agent);\n    }\n    function deRegisterAgents(address _agent, uint32 _id) public onlyOwner{\n        require(_id > 1,\"Provide a valid ID number\");\n        delete agents[_agent];\n        emit agentDeregistered(_agent);\n    }\n\n\n    function registerConsumer(address _consumer, uint32 _id, uint256 _energyBalance) public onlyRegisteredAgents{\n        require(_id >0, \"Provide a valid ID number\");\n        consumers[_consumer] = _id;\n        userEnergyBalance[_consumer] = _energyBalance;\n        emit consumerRegistered(_consumer);\n    }\n    function deRegisterConsumer(address _consumer, uint32 _id) public onlyRegisteredAgents{\n        require(_id >0, \"Provide a valid ID number\");\n        delete consumers[_consumer];\n        delete userEnergyBalance[_consumer];\n        emit consumerRegistered(_consumer);\n    }\n\n    function registerProducer(address _producer, uint32 _id, uint256 _energyBalance) public onlyRegisteredAgents{\n        require(_id >0, \"Provide a valid ID number\");\n        producers[_producer] = _id;\n        userEnergyBalance[_producer] = _energyBalance;\n        emit producerRegistered(_producer);\n    }\n    function deRegisterProducer(address _producer, uint32 _id) public onlyRegisteredAgents{\n        require(_id >0, \"Provide a valid ID number\");\n        delete producers[_producer];\n        delete userEnergyBalance[_producer];\n        emit producerRegistered(_producer);\n    }\n\n    function OfferEnergy(\n        uint32 _price,\n        uint64 _maxEnergy,\n        uint64 _minEnergy\n    ) public onlyRegisteredProducers{\n        require(_maxEnergy<=userEnergyBalance[msg.sender],\"Don't have this much energy to offer\");\n        require(_minEnergy>0,\"Have to offer minimum energy offer\");\n\n//cutting of the amount from the producer so that he can not double offer the same energy.\n        userEnergyBalance[msg.sender] -= _maxEnergy;\n\n        bids.push(\n            Bid({\n                producer : msg.sender,\n                serial: bidId,//it is same as the index number of this bid in \"bids\" array.\n                //using this serial later we can access any information of this bid from anywhere.\n                pricePerUnit : _price,\n                maxEnergy : _maxEnergy,\n                minEnergy : _minEnergy,\n                timestamp : block.timestamp,\n                isSold : false\n            })\n        );\n\n        emit BidMade(bids[bidId].producer, bids[bidId].maxEnergy,bids[bidId].minEnergy,bids[bidId].pricePerUnit);\n        bidId +=1;\n    }\n\n    // function ShowBidByIndex(uint256 index) public view returns (address, uint32, uint32, uint64, uint64, uint256, bool) {\n    function ShowBidByIndex(uint256 index) public view returns (Bid memory) {\n        require(index < bids.length, \"Index out of bounds\");\n        Bid memory selectedBid = bids[index];\n        return (\n            selectedBid\n        );\n    }\n\n\n    function BuyEnergy(\n        address _producer,\n        uint64 _energy,\n        uint32 _bidSerial\n    ) public payable onlyRegisteredConsumers {\n        require(_bidSerial < bids.length,\"The bid with this serial does not exist\");\n        require(bids[_bidSerial].producer == _producer,\"This producer doesn't own this bid\");\n        require(bids[_bidSerial].timestamp <= block.timestamp,\"Can not buy energy before offering it\");\n        require(bids[_bidSerial].maxEnergy >= _energy,\"The bid does not have sufficient energy\");\n        require(_energy >= bids[_bidSerial].minEnergy,\"You did not ask for minimum amout of energy\");\n        require(bids[_bidSerial].isSold == false,\"The bid does not have sufficient energy\");\n        uint64 totalPrice = bids[_bidSerial].pricePerUnit*_energy;\n        require((msg.sender).balance > totalPrice,\"Do not have enough ether in your account\");\n\n//energy transfer\n        userEnergyBalance[_producer] += bids[_bidSerial].maxEnergy;\n        userEnergyBalance[msg.sender] += _energy;\n        userEnergyBalance[_producer] -= _energy;\n\n//balance transfer\n        sendEther(_producer, totalPrice);\n\n        asks.push(\n            Ask({\n                producer : _producer,\n                energy : _energy,\n                totalPrice : totalPrice,\n                timestamp : block.timestamp\n            })\n        );\n        \n        emit DealMade( msg.sender, _energy, totalPrice);\n\n    }\n\n    function sendEther(address _producer, uint64 _totalPrice) internal{\n        require(msg.value >= _totalPrice,\"Did not send enough ether\");\n        payable(_producer).transfer(msg.value);\n    }\n\n    function getBalance(address _account) public view returns(uint){\n        return (_account).balance;\n    }\n\n}\n\n// contract address:    0x4e6E2aE8533254eBCcFe3b194ec657Cf7d0F4D6f\n// account:             0xC0e2eC8E3527AFA4502C05316dfa095244c08C20",
  "sourcePath": "/Users/shekhshihabuddin/Desktop/Tools/EnergyTrade/contracts/Energy.sol",
  "compiler": {
    "name": "solc",
    "version": "0.8.13+commit.abaa5c0e.Emscripten.clang"
  },
  "schemaVersion": "3.4.16",
  "updatedAt": "2023-11-28T02:22:07.605Z",
  "networkType": "ethereum",
  "devdoc": {
    "kind": "dev",
    "methods": {},
    "version": 1
  },
  "userdoc": {
    "kind": "user",
    "methods": {},
    "version": 1
  }
}